{
  "_format": "hh-sol-artifact-1",
  "contractName": "PromptNFT",
  "sourceName": "contracts/PromptNFT.sol",
  "abi": [
    {
      "inputs": [
        {
          "internalType": "address",
          "name": "_trainingRegistryAddress",
          "type": "address"
        }
      ],
      "stateMutability": "nonpayable",
      "type": "constructor"
    },
    {
      "inputs": [
        {
          "internalType": "address",
          "name": "sender",
          "type": "address"
        },
        {
          "internalType": "uint256",
          "name": "tokenId",
          "type": "uint256"
        },
        {
          "internalType": "address",
          "name": "owner",
          "type": "address"
        }
      ],
      "name": "ERC721IncorrectOwner",
      "type": "error"
    },
    {
      "inputs": [
        {
          "internalType": "address",
          "name": "operator",
          "type": "address"
        },
        {
          "internalType": "uint256",
          "name": "tokenId",
          "type": "uint256"
        }
      ],
      "name": "ERC721InsufficientApproval",
      "type": "error"
    },
    {
      "inputs": [
        {
          "internalType": "address",
          "name": "approver",
          "type": "address"
        }
      ],
      "name": "ERC721InvalidApprover",
      "type": "error"
    },
    {
      "inputs": [
        {
          "internalType": "address",
          "name": "operator",
          "type": "address"
        }
      ],
      "name": "ERC721InvalidOperator",
      "type": "error"
    },
    {
      "inputs": [
        {
          "internalType": "address",
          "name": "owner",
          "type": "address"
        }
      ],
      "name": "ERC721InvalidOwner",
      "type": "error"
    },
    {
      "inputs": [
        {
          "internalType": "address",
          "name": "receiver",
          "type": "address"
        }
      ],
      "name": "ERC721InvalidReceiver",
      "type": "error"
    },
    {
      "inputs": [
        {
          "internalType": "address",
          "name": "sender",
          "type": "address"
        }
      ],
      "name": "ERC721InvalidSender",
      "type": "error"
    },
    {
      "inputs": [
        {
          "internalType": "uint256",
          "name": "tokenId",
          "type": "uint256"
        }
      ],
      "name": "ERC721NonexistentToken",
      "type": "error"
    },
    {
      "inputs": [
        {
          "internalType": "address",
          "name": "owner",
          "type": "address"
        }
      ],
      "name": "OwnableInvalidOwner",
      "type": "error"
    },
    {
      "inputs": [
        {
          "internalType": "address",
          "name": "account",
          "type": "address"
        }
      ],
      "name": "OwnableUnauthorizedAccount",
      "type": "error"
    },
    {
      "inputs": [],
      "name": "ReentrancyGuardReentrantCall",
      "type": "error"
    },
    {
      "anonymous": false,
      "inputs": [
        {
          "indexed": true,
          "internalType": "address",
          "name": "owner",
          "type": "address"
        },
        {
          "indexed": true,
          "internalType": "address",
          "name": "approved",
          "type": "address"
        },
        {
          "indexed": true,
          "internalType": "uint256",
          "name": "tokenId",
          "type": "uint256"
        }
      ],
      "name": "Approval",
      "type": "event"
    },
    {
      "anonymous": false,
      "inputs": [
        {
          "indexed": true,
          "internalType": "address",
          "name": "owner",
          "type": "address"
        },
        {
          "indexed": true,
          "internalType": "address",
          "name": "operator",
          "type": "address"
        },
        {
          "indexed": false,
          "internalType": "bool",
          "name": "approved",
          "type": "bool"
        }
      ],
      "name": "ApprovalForAll",
      "type": "event"
    },
    {
      "anonymous": false,
      "inputs": [
        {
          "indexed": true,
          "internalType": "address",
          "name": "previousOwner",
          "type": "address"
        },
        {
          "indexed": true,
          "internalType": "address",
          "name": "newOwner",
          "type": "address"
        }
      ],
      "name": "OwnershipTransferred",
      "type": "event"
    },
    {
      "anonymous": false,
      "inputs": [
        {
          "indexed": true,
          "internalType": "uint256",
          "name": "tokenId",
          "type": "uint256"
        },
        {
          "indexed": false,
          "internalType": "uint256",
          "name": "price",
          "type": "uint256"
        }
      ],
      "name": "PromptListed",
      "type": "event"
    },
    {
      "anonymous": false,
      "inputs": [
        {
          "indexed": true,
          "internalType": "uint256",
          "name": "tokenId",
          "type": "uint256"
        },
        {
          "indexed": true,
          "internalType": "address",
          "name": "creator",
          "type": "address"
        },
        {
          "indexed": false,
          "internalType": "string",
          "name": "ipfsHash",
          "type": "string"
        },
        {
          "indexed": false,
          "internalType": "uint256",
          "name": "overallScore",
          "type": "uint256"
        }
      ],
      "name": "PromptMinted",
      "type": "event"
    },
    {
      "anonymous": false,
      "inputs": [
        {
          "indexed": true,
          "internalType": "uint256",
          "name": "tokenId",
          "type": "uint256"
        },
        {
          "indexed": true,
          "internalType": "address",
          "name": "buyer",
          "type": "address"
        },
        {
          "indexed": false,
          "internalType": "uint256",
          "name": "price",
          "type": "uint256"
        }
      ],
      "name": "PromptPurchased",
      "type": "event"
    },
    {
      "anonymous": false,
      "inputs": [
        {
          "indexed": true,
          "internalType": "uint256",
          "name": "tokenId",
          "type": "uint256"
        }
      ],
      "name": "PromptUnlisted",
      "type": "event"
    },
    {
      "anonymous": false,
      "inputs": [
        {
          "indexed": true,
          "internalType": "address",
          "name": "oldRegistry",
          "type": "address"
        },
        {
          "indexed": true,
          "internalType": "address",
          "name": "newRegistry",
          "type": "address"
        }
      ],
      "name": "TrainingRegistryUpdated",
      "type": "event"
    },
    {
      "anonymous": false,
      "inputs": [
        {
          "indexed": true,
          "internalType": "address",
          "name": "from",
          "type": "address"
        },
        {
          "indexed": true,
          "internalType": "address",
          "name": "to",
          "type": "address"
        },
        {
          "indexed": true,
          "internalType": "uint256",
          "name": "tokenId",
          "type": "uint256"
        }
      ],
      "name": "Transfer",
      "type": "event"
    },
    {
      "inputs": [],
      "name": "MIN_MINT_SCORE",
      "outputs": [
        {
          "internalType": "uint256",
          "name": "",
          "type": "uint256"
        }
      ],
      "stateMutability": "view",
      "type": "function"
    },
    {
      "inputs": [
        {
          "internalType": "address",
          "name": "to",
          "type": "address"
        },
        {
          "internalType": "uint256",
          "name": "tokenId",
          "type": "uint256"
        }
      ],
      "name": "approve",
      "outputs": [],
      "stateMutability": "nonpayable",
      "type": "function"
    },
    {
      "inputs": [
        {
          "internalType": "address",
          "name": "owner",
          "type": "address"
        }
      ],
      "name": "balanceOf",
      "outputs": [
        {
          "internalType": "uint256",
          "name": "",
          "type": "uint256"
        }
      ],
      "stateMutability": "view",
      "type": "function"
    },
    {
      "inputs": [
        {
          "internalType": "uint256",
          "name": "tokenId",
          "type": "uint256"
        }
      ],
      "name": "buyPrompt",
      "outputs": [],
      "stateMutability": "payable",
      "type": "function"
    },
    {
      "inputs": [],
      "name": "getAllListedTokenIds",
      "outputs": [
        {
          "internalType": "uint256[]",
          "name": "",
          "type": "uint256[]"
        }
      ],
      "stateMutability": "view",
      "type": "function"
    },
    {
      "inputs": [
        {
          "internalType": "uint256",
          "name": "tokenId",
          "type": "uint256"
        }
      ],
      "name": "getApproved",
      "outputs": [
        {
          "internalType": "address",
          "name": "",
          "type": "address"
        }
      ],
      "stateMutability": "view",
      "type": "function"
    },
    {
      "inputs": [
        {
          "internalType": "uint256",
          "name": "tokenId",
          "type": "uint256"
        }
      ],
      "name": "getPromptMetadata",
      "outputs": [
        {
          "components": [
            {
              "internalType": "string",
              "name": "ipfsHash",
              "type": "string"
            },
            {
              "internalType": "uint256",
              "name": "clarityScore",
              "type": "uint256"
            },
            {
              "internalType": "uint256",
              "name": "structureScore",
              "type": "uint256"
            },
            {
              "internalType": "uint256",
              "name": "originalityScore",
              "type": "uint256"
            },
            {
              "internalType": "uint256",
              "name": "outputScore",
              "type": "uint256"
            },
            {
              "internalType": "uint256",
              "name": "overallScore",
              "type": "uint256"
            },
            {
              "internalType": "bool",
              "name": "isVerified",
              "type": "bool"
            },
            {
              "internalType": "address",
              "name": "creatorWallet",
              "type": "address"
            },
            {
              "internalType": "uint256",
              "name": "price",
              "type": "uint256"
            },
            {
              "internalType": "bool",
              "name": "isListed",
              "type": "bool"
            }
          ],
          "internalType": "struct PromptNFT.PromptMetadata",
          "name": "",
          "type": "tuple"
        }
      ],
      "stateMutability": "view",
      "type": "function"
    },
    {
      "inputs": [
        {
          "internalType": "address",
          "name": "owner",
          "type": "address"
        },
        {
          "internalType": "address",
          "name": "operator",
          "type": "address"
        }
      ],
      "name": "isApprovedForAll",
      "outputs": [
        {
          "internalType": "bool",
          "name": "",
          "type": "bool"
        }
      ],
      "stateMutability": "view",
      "type": "function"
    },
    {
      "inputs": [
        {
          "internalType": "uint256",
          "name": "tokenId",
          "type": "uint256"
        },
        {
          "internalType": "uint256",
          "name": "price",
          "type": "uint256"
        }
      ],
      "name": "listPrompt",
      "outputs": [],
      "stateMutability": "nonpayable",
      "type": "function"
    },
    {
      "inputs": [
        {
          "internalType": "address",
          "name": "creator",
          "type": "address"
        },
        {
          "internalType": "string",
          "name": "ipfsHash",
          "type": "string"
        },
        {
          "internalType": "uint256[4]",
          "name": "scores",
          "type": "uint256[4]"
        },
        {
          "internalType": "uint256",
          "name": "price",
          "type": "uint256"
        }
      ],
      "name": "mintPrompt",
      "outputs": [
        {
          "internalType": "uint256",
          "name": "",
          "type": "uint256"
        }
      ],
      "stateMutability": "nonpayable",
      "type": "function"
    },
    {
      "inputs": [],
      "name": "name",
      "outputs": [
        {
          "internalType": "string",
          "name": "",
          "type": "string"
        }
      ],
      "stateMutability": "view",
      "type": "function"
    },
    {
      "inputs": [],
      "name": "owner",
      "outputs": [
        {
          "internalType": "address",
          "name": "",
          "type": "address"
        }
      ],
      "stateMutability": "view",
      "type": "function"
    },
    {
      "inputs": [
        {
          "internalType": "uint256",
          "name": "tokenId",
          "type": "uint256"
        }
      ],
      "name": "ownerOf",
      "outputs": [
        {
          "internalType": "address",
          "name": "",
          "type": "address"
        }
      ],
      "stateMutability": "view",
      "type": "function"
    },
    {
      "inputs": [
        {
          "internalType": "uint256",
          "name": "",
          "type": "uint256"
        }
      ],
      "name": "prompts",
      "outputs": [
        {
          "internalType": "string",
          "name": "ipfsHash",
          "type": "string"
        },
        {
          "internalType": "uint256",
          "name": "clarityScore",
          "type": "uint256"
        },
        {
          "internalType": "uint256",
          "name": "structureScore",
          "type": "uint256"
        },
        {
          "internalType": "uint256",
          "name": "originalityScore",
          "type": "uint256"
        },
        {
          "internalType": "uint256",
          "name": "outputScore",
          "type": "uint256"
        },
        {
          "internalType": "uint256",
          "name": "overallScore",
          "type": "uint256"
        },
        {
          "internalType": "bool",
          "name": "isVerified",
          "type": "bool"
        },
        {
          "internalType": "address",
          "name": "creatorWallet",
          "type": "address"
        },
        {
          "internalType": "uint256",
          "name": "price",
          "type": "uint256"
        },
        {
          "internalType": "bool",
          "name": "isListed",
          "type": "bool"
        }
      ],
      "stateMutability": "view",
      "type": "function"
    },
    {
      "inputs": [],
      "name": "renounceOwnership",
      "outputs": [],
      "stateMutability": "nonpayable",
      "type": "function"
    },
    {
      "inputs": [
        {
          "internalType": "address",
          "name": "from",
          "type": "address"
        },
        {
          "internalType": "address",
          "name": "to",
          "type": "address"
        },
        {
          "internalType": "uint256",
          "name": "tokenId",
          "type": "uint256"
        }
      ],
      "name": "safeTransferFrom",
      "outputs": [],
      "stateMutability": "nonpayable",
      "type": "function"
    },
    {
      "inputs": [
        {
          "internalType": "address",
          "name": "from",
          "type": "address"
        },
        {
          "internalType": "address",
          "name": "to",
          "type": "address"
        },
        {
          "internalType": "uint256",
          "name": "tokenId",
          "type": "uint256"
        },
        {
          "internalType": "bytes",
          "name": "data",
          "type": "bytes"
        }
      ],
      "name": "safeTransferFrom",
      "outputs": [],
      "stateMutability": "nonpayable",
      "type": "function"
    },
    {
      "inputs": [
        {
          "internalType": "address",
          "name": "operator",
          "type": "address"
        },
        {
          "internalType": "bool",
          "name": "approved",
          "type": "bool"
        }
      ],
      "name": "setApprovalForAll",
      "outputs": [],
      "stateMutability": "nonpayable",
      "type": "function"
    },
    {
      "inputs": [
        {
          "internalType": "address",
          "name": "_trainingRegistryAddress",
          "type": "address"
        }
      ],
      "name": "setTrainingRegistry",
      "outputs": [],
      "stateMutability": "nonpayable",
      "type": "function"
    },
    {
      "inputs": [
        {
          "internalType": "bytes4",
          "name": "interfaceId",
          "type": "bytes4"
        }
      ],
      "name": "supportsInterface",
      "outputs": [
        {
          "internalType": "bool",
          "name": "",
          "type": "bool"
        }
      ],
      "stateMutability": "view",
      "type": "function"
    },
    {
      "inputs": [],
      "name": "symbol",
      "outputs": [
        {
          "internalType": "string",
          "name": "",
          "type": "string"
        }
      ],
      "stateMutability": "view",
      "type": "function"
    },
    {
      "inputs": [],
      "name": "tokenCount",
      "outputs": [
        {
          "internalType": "uint256",
          "name": "",
          "type": "uint256"
        }
      ],
      "stateMutability": "view",
      "type": "function"
    },
    {
      "inputs": [
        {
          "internalType": "uint256",
          "name": "tokenId",
          "type": "uint256"
        }
      ],
      "name": "tokenURI",
      "outputs": [
        {
          "internalType": "string",
          "name": "",
          "type": "string"
        }
      ],
      "stateMutability": "view",
      "type": "function"
    },
    {
      "inputs": [],
      "name": "trainingRegistryAddress",
      "outputs": [
        {
          "internalType": "address",
          "name": "",
          "type": "address"
        }
      ],
      "stateMutability": "view",
      "type": "function"
    },
    {
      "inputs": [
        {
          "internalType": "address",
          "name": "from",
          "type": "address"
        },
        {
          "internalType": "address",
          "name": "to",
          "type": "address"
        },
        {
          "internalType": "uint256",
          "name": "tokenId",
          "type": "uint256"
        }
      ],
      "name": "transferFrom",
      "outputs": [],
      "stateMutability": "nonpayable",
      "type": "function"
    },
    {
      "inputs": [
        {
          "internalType": "address",
          "name": "newOwner",
          "type": "address"
        }
      ],
      "name": "transferOwnership",
      "outputs": [],
      "stateMutability": "nonpayable",
      "type": "function"
    },
    {
      "inputs": [
        {
          "internalType": "uint256",
          "name": "tokenId",
          "type": "uint256"
        }
      ],
      "name": "unlistPrompt",
      "outputs": [],
      "stateMutability": "nonpayable",
      "type": "function"
    }
  ],
  "bytecode": "0x608060405234801561000f575f5ffd5b5060405161269538038061269583398101604081905261002e916101b2565b336040518060400160405280600881526020016750726f6d7074466960c01b8152506040518060400160405280600381526020016250464960e81b815250815f908161007a9190610277565b5060016100878282610277565b5050506001600160a01b0381166100b857604051631e4fbdf760e01b81525f60048201526024015b60405180910390fd5b6100c181610161565b5060017f9b779b17422d0df92223018b32b4d1fa46e071723d6817e2486d003becc55f00556001600160a01b03811661013c5760405162461bcd60e51b815260206004820181905260248201527f50726f6d70744e46543a207a65726f207265676973747279206164647265737360448201526064016100af565b600980546001600160a01b0319166001600160a01b0392909216919091179055610331565b600680546001600160a01b038381166001600160a01b0319831681179093556040519116919082907f8be0079c531659141344cd1fd0a4f28419497f9722a3daafe3b4186f6b6457e0905f90a35050565b5f602082840312156101c2575f5ffd5b81516001600160a01b03811681146101d8575f5ffd5b9392505050565b634e487b7160e01b5f52604160045260245ffd5b600181811c9082168061020757607f821691505b60208210810361022557634e487b7160e01b5f52602260045260245ffd5b50919050565b601f82111561027257805f5260205f20601f840160051c810160208510156102505750805b601f840160051c820191505b8181101561026f575f815560010161025c565b50505b505050565b81516001600160401b03811115610290576102906101df565b6102a48161029e84546101f3565b8461022b565b6020601f8211600181146102d6575f83156102bf5750848201515b5f19600385901b1c1916600184901b17845561026f565b5f84815260208120601f198516915b8281101561030557878501518255602094850194600190920191016102e5565b508482101561032257868401515f19600387901b60f8161c191681555b50505050600190811b01905550565b6123578061033e5f395ff3fe608060405260043610610195575f3560e01c80638da5cb5b116100e7578063ce7266fd11610087578063f0d1c2e011610062578063f0d1c2e01461047e578063f2fde38b1461049f578063f411d041146104be578063f7df987a146104dd575f5ffd5b8063ce7266fd1461040b578063d4cf9af71461042a578063e985e9c51461045f575f5ffd5b8063a22cb465116100c2578063a22cb4651461038f578063a354a94e146103ae578063b88d4fde146103cd578063c87b56dd146103ec575f5ffd5b80638da5cb5b1461034957806395d89b41146103665780639f181b5e1461037a575f5ffd5b806323b872dd116101525780636352211e1161012d5780636352211e146102d857806370a08231146102f7578063715018a61461031657806385afad6a1461032a575f5ffd5b806323b872dd1461027b57806342842e0e1461029a5780634ce2abf5146102b9575f5ffd5b80630185dfd61461019957806301ffc9a7146101c057806306fdde03146101ef578063081812fc14610210578063095ea7b3146102475780631e1a082c14610268575b5f5ffd5b3480156101a4575f5ffd5b506101ad604681565b6040519081526020015b60405180910390f35b3480156101cb575f5ffd5b506101df6101da366004611b62565b610509565b60405190151581526020016101b7565b3480156101fa575f5ffd5b5061020361055a565b6040516101b79190611bb2565b34801561021b575f5ffd5b5061022f61022a366004611bc4565b6105e9565b6040516001600160a01b0390911681526020016101b7565b348015610252575f5ffd5b50610266610261366004611bf6565b610610565b005b610266610276366004611bc4565b61061f565b348015610286575f5ffd5b50610266610295366004611c1e565b610939565b3480156102a5575f5ffd5b506102666102b4366004611c1e565b6109c2565b3480156102c4575f5ffd5b5060095461022f906001600160a01b031681565b3480156102e3575f5ffd5b5061022f6102f2366004611bc4565b6109e1565b348015610302575f5ffd5b506101ad610311366004611c58565b6109eb565b348015610321575f5ffd5b50610266610a30565b348015610335575f5ffd5b50610266610344366004611bc4565b610a43565b348015610354575f5ffd5b506006546001600160a01b031661022f565b348015610371575f5ffd5b50610203610b18565b348015610385575f5ffd5b506101ad60075481565b34801561039a575f5ffd5b506102666103a9366004611c71565b610b27565b3480156103b9575f5ffd5b506101ad6103c8366004611d5e565b610b32565b3480156103d8575f5ffd5b506102666103e7366004611e0b565b610eb1565b3480156103f7575f5ffd5b50610203610406366004611bc4565b610ec9565b348015610416575f5ffd5b50610266610425366004611c58565b610f09565b348015610435575f5ffd5b50610449610444366004611bc4565b610fb7565b6040516101b79a99989796959493929190611e82565b34801561046a575f5ffd5b506101df610479366004611ee8565b61109c565b348015610489575f5ffd5b506104926110c9565b6040516101b79190611f19565b3480156104aa575f5ffd5b506102666104b9366004611c58565b6111b3565b3480156104c9575f5ffd5b506102666104d8366004611f5b565b6111ed565b3480156104e8575f5ffd5b506104fc6104f7366004611bc4565b6112e2565b6040516101b79190611f7b565b5f6001600160e01b031982166380ac58cd60e01b148061053957506001600160e01b03198216635b5e139f60e01b145b8061055457506301ffc9a760e01b6001600160e01b03198316145b92915050565b60605f80546105689061201f565b80601f01602080910402602001604051908101604052809291908181526020018280546105949061201f565b80156105df5780601f106105b6576101008083540402835291602001916105df565b820191905f5260205f20905b8154815290600101906020018083116105c257829003601f168201915b5050505050905090565b5f6105f38261145f565b505f828152600460205260409020546001600160a01b0316610554565b61061b828233611497565b5050565b6106276114a4565b5f8181526008602081905260409091209081015460ff1661068f5760405162461bcd60e51b815260206004820152601e60248201527f50726f6d70744e46543a20746f6b656e206973206e6f74206c6973746564000060448201526064015b60405180910390fd5b80600701543410156106e35760405162461bcd60e51b815260206004820152601f60248201527f50726f6d70744e46543a20696e73756666696369656e74207061796d656e74006044820152606401610686565b5f6106ed836109e1565b9050336001600160a01b038216036107565760405162461bcd60e51b815260206004820152602660248201527f50726f6d70744e46543a2063616e6e6f742062757920796f7572206f776e206c604482015265697374696e6760d01b6064820152608401610686565b60078201545f610766823461206b565b60088501805460ff19169055905061077f8333876114d2565b5f836001600160a01b0316836040515f6040518083038185875af1925050503d805f81146107c8576040519150601f19603f3d011682016040523d82523d5f602084013e6107cd565b606091505b505090508061082a5760405162461bcd60e51b815260206004820152602360248201527f50726f6d70744e46543a207061796d656e7420746f2073656c6c6572206661696044820152621b195960ea1b6064820152608401610686565b81156108d1576040515f90339084908381818185875af1925050503d805f811461086f576040519150601f19603f3d011682016040523d82523d5f602084013e610874565b606091505b50509050806108cf5760405162461bcd60e51b815260206004820152602160248201527f50726f6d70744e46543a20726566756e6420746f206275796572206661696c656044820152601960fa1b6064820152608401610686565b505b604051838152339087907fd1a0fd5c0a53c54a28e29b9d1a20fc8534fdfb5650c5473fc9e606ae6aae00fc9060200160405180910390a3505050505061093660017f9b779b17422d0df92223018b32b4d1fa46e071723d6817e2486d003becc55f0055565b50565b6001600160a01b03821661096257604051633250574960e11b81525f6004820152602401610686565b5f61096e83833361157f565b9050836001600160a01b0316816001600160a01b0316146109bc576040516364283d7b60e01b81526001600160a01b0380861660048301526024820184905282166044820152606401610686565b50505050565b6109dc83838360405180602001604052805f815250610eb1565b505050565b5f6105548261145f565b5f6001600160a01b038216610a15576040516322718ad960e21b81525f6004820152602401610686565b506001600160a01b03165f9081526003602052604090205490565b610a38611671565b610a415f61169e565b565b33610a4d826109e1565b6001600160a01b031614610a735760405162461bcd60e51b81526004016106869061207e565b5f818152600860208190526040909120015460ff16610ad45760405162461bcd60e51b815260206004820152601e60248201527f50726f6d70744e46543a20746f6b656e206973206e6f74206c697374656400006044820152606401610686565b5f818152600860208190526040808320909101805460ff191690555182917f460530e01f48bc7a1727a1c43abcbd87def3441243d4ae2c15ca4c1412456e0a91a250565b6060600180546105689061201f565b61061b3383836116ef565b5f610b3b611671565b6001600160a01b038516610b915760405162461bcd60e51b815260206004820152601f60248201527f50726f6d70744e46543a207a65726f2063726561746f722061646472657373006044820152606401610686565b5f845111610be15760405162461bcd60e51b815260206004820152601960248201527f50726f6d70744e46543a20656d707479206970667348617368000000000000006044820152606401610686565b5f5b6004811015610c5b576064848260048110610c0057610c006120c2565b60200201511115610c535760405162461bcd60e51b815260206004820152601d60248201527f50726f6d70744e46543a2073636f7265206f7574206f662072616e67650000006044820152606401610686565b600101610be3565b5060608301516040840151602085015185515f9360049390929091610c8091906120d6565b610c8a91906120d6565b610c9491906120d6565b610c9e91906120e9565b90506046811015610d065760405162461bcd60e51b815260206004820152602c60248201527f50726f6d70744e46543a206f766572616c6c53636f72652062656c6f77206d6960448201526b1b9d081d1a1c995cda1bdb1960a21b6064820152608401610686565b6007546040805161014081018252878152865160208201529081018660016020020151815260200186600260048110610d4157610d416120c2565b6020020151815260200186600360048110610d5e57610d5e6120c2565b602090810291909101518252818101859052600160408084018290526001600160a01b038c1660608501526080840189905260a0909301525f84815260089091522081518190610dae908261214c565b506020820151600182015560408201516002820155606082015160038201556080820151600482015560a0820151600582015560c082015160068201805460e08501516001600160a81b0319909116921515610100600160a81b031916929092176101006001600160a01b0390931683021790558201516007820155610120909101516008909101805460ff1916911515919091179055610e4f87826117b6565b60078054905f610e5e83612207565b9190505550866001600160a01b0316817f6ec5b4b235b3538696723095ef2538436cfeed693dd6bb5dbad1179bd46eea948885604051610e9f92919061221f565b60405180910390a39695505050505050565b610ebc848484610939565b6109bc3385858585611817565b6060610ed48261145f565b505f828152600860209081526040918290209151610ef3929101612240565b6040516020818303038152906040529050919050565b610f11611671565b6001600160a01b038116610f675760405162461bcd60e51b815260206004820181905260248201527f50726f6d70744e46543a207a65726f20726567697374727920616464726573736044820152606401610686565b600980546001600160a01b038381166001600160a01b0319831681179093556040519116919082907e77b3d34d5dc836db7cb0164cc46b29da97d8aaa1e3b0532d344a0aa4470da0905f90a35050565b60086020525f9081526040902080548190610fd19061201f565b80601f0160208091040260200160405190810160405280929190818152602001828054610ffd9061201f565b80156110485780601f1061101f57610100808354040283529160200191611048565b820191905f5260205f20905b81548152906001019060200180831161102b57829003601f168201915b5050505060018301546002840154600385015460048601546005870154600688015460078901546008909901549798959794965092949193909260ff808216936101009092046001600160a01b031692168a565b6001600160a01b039182165f90815260056020908152604080832093909416825291909152205460ff1690565b60605f5f5b600754811015611108575f818152600860208190526040909120015460ff161561110057816110fc81612207565b9250505b6001016110ce565b505f8167ffffffffffffffff81111561112357611123611caa565b60405190808252806020026020018201604052801561114c578160200160208202803683370190505b5090505f5f5b6007548110156111aa575f818152600860208190526040909120015460ff16156111a25780838381518110611189576111896120c2565b60209081029190910101528161119e81612207565b9250505b600101611152565b50909392505050565b6111bb611671565b6001600160a01b0381166111e457604051631e4fbdf760e01b81525f6004820152602401610686565b6109368161169e565b336111f7836109e1565b6001600160a01b03161461121d5760405162461bcd60e51b81526004016106869061207e565b5f811161127f5760405162461bcd60e51b815260206004820152602a60248201527f50726f6d70744e46543a207072696365206d7573742062652067726561746572604482015269207468616e207a65726f60b01b6064820152608401610686565b5f82815260086020819052604091829020908101805460ff191660011790556007018290555182907fc323190c70baa5a5f2f8ac7fba5906d3db0aa9436722360c37b675fde460264b906112d69084815260200190565b60405180910390a25050565b61133c604051806101400160405280606081526020015f81526020015f81526020015f81526020015f81526020015f81526020015f151581526020015f6001600160a01b031681526020015f81526020015f151581525090565b5f8281526008602052604090819020815161014081019092528054829082906113649061201f565b80601f01602080910402602001604051908101604052809291908181526020018280546113909061201f565b80156113db5780601f106113b2576101008083540402835291602001916113db565b820191905f5260205f20905b8154815290600101906020018083116113be57829003601f168201915b505050918352505060018201546020820152600282015460408201526003820154606082015260048201546080820152600582015460a0820152600682015460ff808216151560c08401526001600160a01b03610100928390041660e084015260078401549183019190915260089092015490911615156101209091015292915050565b5f818152600260205260408120546001600160a01b03168061055457604051637e27328960e01b815260048101849052602401610686565b6109dc838383600161193f565b6114ac611a43565b60027f9b779b17422d0df92223018b32b4d1fa46e071723d6817e2486d003becc55f0055565b6001600160a01b0382166114fb57604051633250574960e11b81525f6004820152602401610686565b5f61150783835f61157f565b90506001600160a01b03811661153357604051637e27328960e01b815260048101839052602401610686565b836001600160a01b0316816001600160a01b0316146109bc576040516364283d7b60e01b81526001600160a01b0380861660048301526024820184905282166044820152606401610686565b5f828152600260205260408120546001600160a01b03908116908316156115ab576115ab818486611a85565b6001600160a01b038116156115e5576115c65f855f5f61193f565b6001600160a01b0381165f90815260036020526040902080545f190190555b6001600160a01b03851615611613576001600160a01b0385165f908152600360205260409020805460010190555b5f8481526002602052604080822080546001600160a01b0319166001600160a01b0389811691821790925591518793918516917fddf252ad1be2c89b69c2b068fc378daa952ba7f163c4a11628f55a4df523b3ef91a4949350505050565b6006546001600160a01b03163314610a415760405163118cdaa760e01b8152336004820152602401610686565b600680546001600160a01b038381166001600160a01b0319831681179093556040519116919082907f8be0079c531659141344cd1fd0a4f28419497f9722a3daafe3b4186f6b6457e0905f90a35050565b6001600160a01b0383166117185760405163a9fbf51f60e01b81525f6004820152602401610686565b6001600160a01b03821661174a57604051630b61174360e31b81526001600160a01b0383166004820152602401610686565b6001600160a01b038381165f81815260056020908152604080832094871680845294825291829020805460ff191686151590811790915591519182527f17307eab39ab6107e8899845ad3d59bd9653f200f220920489ca2b5937696c31910160405180910390a3505050565b6001600160a01b0382166117df57604051633250574960e11b81525f6004820152602401610686565b5f6117eb83835f61157f565b90506001600160a01b038116156109dc576040516339e3563760e11b81525f6004820152602401610686565b6001600160a01b0383163b1561193857604051630a85bd0160e11b81526001600160a01b0384169063150b7a02906118599088908890879087906004016122ca565b6020604051808303815f875af1925050508015611893575060408051601f3d908101601f1916820190925261189091810190612306565b60015b6118fa573d8080156118c0576040519150601f19603f3d011682016040523d82523d5f602084013e6118c5565b606091505b5080515f036118f257604051633250574960e11b81526001600160a01b0385166004820152602401610686565b805160208201fd5b6001600160e01b03198116630a85bd0160e11b1461193657604051633250574960e11b81526001600160a01b0385166004820152602401610686565b505b5050505050565b808061195357506001600160a01b03821615155b15611a14575f6119628461145f565b90506001600160a01b0383161580159061198e5750826001600160a01b0316816001600160a01b031614155b80156119a1575061199f818461109c565b155b156119ca5760405163a9fbf51f60e01b81526001600160a01b0384166004820152602401610686565b8115611a125783856001600160a01b0316826001600160a01b03167f8c5be1e5ebec7d5bd14f71427d1e84f3dd0314c0f7b2291e5b200ac8c7c3b92560405160405180910390a45b505b50505f90815260046020526040902080546001600160a01b0319166001600160a01b0392909216919091179055565b7f9b779b17422d0df92223018b32b4d1fa46e071723d6817e2486d003becc55f0054600203610a4157604051633ee5aeb560e01b815260040160405180910390fd5b611a90838383611ae9565b6109dc576001600160a01b038316611abe57604051637e27328960e01b815260048101829052602401610686565b60405163177e802f60e01b81526001600160a01b038316600482015260248101829052604401610686565b5f6001600160a01b03831615801590611b455750826001600160a01b0316846001600160a01b03161480611b225750611b22848461109c565b80611b4557505f828152600460205260409020546001600160a01b038481169116145b949350505050565b6001600160e01b031981168114610936575f5ffd5b5f60208284031215611b72575f5ffd5b8135611b7d81611b4d565b9392505050565b5f81518084528060208401602086015e5f602082860101526020601f19601f83011685010191505092915050565b602081525f611b7d6020830184611b84565b5f60208284031215611bd4575f5ffd5b5035919050565b80356001600160a01b0381168114611bf1575f5ffd5b919050565b5f5f60408385031215611c07575f5ffd5b611c1083611bdb565b946020939093013593505050565b5f5f5f60608486031215611c30575f5ffd5b611c3984611bdb565b9250611c4760208501611bdb565b929592945050506040919091013590565b5f60208284031215611c68575f5ffd5b611b7d82611bdb565b5f5f60408385031215611c82575f5ffd5b611c8b83611bdb565b915060208301358015158114611c9f575f5ffd5b809150509250929050565b634e487b7160e01b5f52604160045260245ffd5b6040516080810167ffffffffffffffff81118282101715611ce157611ce1611caa565b60405290565b5f5f67ffffffffffffffff841115611d0157611d01611caa565b50604051601f19601f85018116603f0116810181811067ffffffffffffffff82111715611d3057611d30611caa565b604052838152905080828401851015611d47575f5ffd5b838360208301375f60208583010152509392505050565b5f5f5f5f60e08587031215611d71575f5ffd5b611d7a85611bdb565b9350602085013567ffffffffffffffff811115611d95575f5ffd5b8501601f81018713611da5575f5ffd5b611db487823560208401611ce7565b93505085605f860112611dc5575f5ffd5b611dcd611cbe565b8060c0870188811115611dde575f5ffd5b604088015b81811015611dfb578035845260209384019301611de3565b5095989497509550509235925050565b5f5f5f5f60808587031215611e1e575f5ffd5b611e2785611bdb565b9350611e3560208601611bdb565b925060408501359150606085013567ffffffffffffffff811115611e57575f5ffd5b8501601f81018713611e67575f5ffd5b611e7687823560208401611ce7565b91505092959194509250565b61014081525f611e9661014083018d611b84565b602083019b909b525060408101989098526060880196909652608087019490945260a0860192909252151560c08501526001600160a01b031660e0840152610100830152151561012090910152919050565b5f5f60408385031215611ef9575f5ffd5b611f0283611bdb565b9150611f1060208401611bdb565b90509250929050565b602080825282518282018190525f918401906040840190835b81811015611f50578351835260209384019390920191600101611f32565b509095945050505050565b5f5f60408385031215611f6c575f5ffd5b50508035926020909101359150565b602081525f82516101406020840152611f98610160840182611b84565b9050602084015160408401526040840151606084015260608401516080840152608084015160a084015260a084015160c084015260c0840151611fdf60e085018215159052565b5060e08401516001600160a01b0381166101008501525061010084015161012084015261012084015161201761014085018215159052565b509392505050565b600181811c9082168061203357607f821691505b60208210810361205157634e487b7160e01b5f52602260045260245ffd5b50919050565b634e487b7160e01b5f52601160045260245ffd5b8181038181111561055457610554612057565b60208082526024908201527f50726f6d70744e46543a2063616c6c6572206973206e6f7420746f6b656e206f6040820152633bb732b960e11b606082015260800190565b634e487b7160e01b5f52603260045260245ffd5b8082018082111561055457610554612057565b5f8261210357634e487b7160e01b5f52601260045260245ffd5b500490565b601f8211156109dc57805f5260205f20601f840160051c8101602085101561212d5750805b601f840160051c820191505b81811015611938575f8155600101612139565b815167ffffffffffffffff81111561216657612166611caa565b61217a81612174845461201f565b84612108565b6020601f8211600181146121ac575f83156121955750848201515b5f19600385901b1c1916600184901b178455611938565b5f84815260208120601f198516915b828110156121db57878501518255602094850194600190920191016121bb565b50848210156121f857868401515f19600387901b60f8161c191681555b50505050600190811b01905550565b5f6001820161221857612218612057565b5060010190565b604081525f6122316040830185611b84565b90508260208301529392505050565b66697066733a2f2f60c81b81525f5f835461225a8161201f565b600182168015612271576001811461228c576122bf565b60ff19831660078701526007821515830287010193506122bf565b865f5260205f205f5b838110156122b457815488820160070152600190910190602001612295565b505060078287010193505b509195945050505050565b6001600160a01b03858116825284166020820152604081018390526080606082018190525f906122fc90830184611b84565b9695505050505050565b5f60208284031215612316575f5ffd5b8151611b7d81611b4d56fea26469706673582212206504ab60b25842cd7596a8aa605c7bb4f464240d79fd59be78506eac1c9373b064736f6c634300081c0033",
  "linkReferences": {},
  "deployedLinkReferences": {}
}