{
  "_format": "hh-sol-artifact-1",
  "contractName": "TrainingRegistry",
  "sourceName": "contracts/TrainingRegistry.sol",
  "abi": [
    {
      "inputs": [],
      "stateMutability": "nonpayable",
      "type": "constructor"
    },
    {
      "inputs": [
        {
          "internalType": "address",
          "name": "owner",
          "type": "address"
        }
      ],
      "name": "OwnableInvalidOwner",
      "type": "error"
    },
    {
      "inputs": [
        {
          "internalType": "address",
          "name": "account",
          "type": "address"
        }
      ],
      "name": "OwnableUnauthorizedAccount",
      "type": "error"
    },
    {
      "anonymous": false,
      "inputs": [
        {
          "indexed": true,
          "internalType": "address",
          "name": "wallet",
          "type": "address"
        },
        {
          "indexed": false,
          "internalType": "uint256",
          "name": "challengeId",
          "type": "uint256"
        },
        {
          "indexed": false,
          "internalType": "uint256",
          "name": "score",
          "type": "uint256"
        }
      ],
      "name": "ChallengeAttemptLogged",
      "type": "event"
    },
    {
      "anonymous": false,
      "inputs": [
        {
          "indexed": true,
          "internalType": "address",
          "name": "wallet",
          "type": "address"
        }
      ],
      "name": "ExpertStatusGranted",
      "type": "event"
    },
    {
      "anonymous": false,
      "inputs": [
        {
          "indexed": true,
          "internalType": "address",
          "name": "previousOwner",
          "type": "address"
        },
        {
          "indexed": true,
          "internalType": "address",
          "name": "newOwner",
          "type": "address"
        }
      ],
      "name": "OwnershipTransferred",
      "type": "event"
    },
    {
      "inputs": [
        {
          "internalType": "address",
          "name": "wallet",
          "type": "address"
        }
      ],
      "name": "checkAndSetExpert",
      "outputs": [],
      "stateMutability": "nonpayable",
      "type": "function"
    },
    {
      "inputs": [
        {
          "internalType": "address",
          "name": "wallet",
          "type": "address"
        }
      ],
      "name": "getAttemptCount",
      "outputs": [
        {
          "internalType": "uint256",
          "name": "",
          "type": "uint256"
        }
      ],
      "stateMutability": "view",
      "type": "function"
    },
    {
      "inputs": [
        {
          "internalType": "address",
          "name": "wallet",
          "type": "address"
        }
      ],
      "name": "getAverageScore",
      "outputs": [
        {
          "internalType": "uint256",
          "name": "",
          "type": "uint256"
        }
      ],
      "stateMutability": "view",
      "type": "function"
    },
    {
      "inputs": [
        {
          "internalType": "address",
          "name": "",
          "type": "address"
        }
      ],
      "name": "isExpert",
      "outputs": [
        {
          "internalType": "bool",
          "name": "",
          "type": "bool"
        }
      ],
      "stateMutability": "view",
      "type": "function"
    },
    {
      "inputs": [
        {
          "internalType": "address",
          "name": "wallet",
          "type": "address"
        }
      ],
      "name": "isExpertWallet",
      "outputs": [
        {
          "internalType": "bool",
          "name": "",
          "type": "bool"
        }
      ],
      "stateMutability": "view",
      "type": "function"
    },
    {
      "inputs": [
        {
          "internalType": "address",
          "name": "wallet",
          "type": "address"
        },
        {
          "internalType": "uint256",
          "name": "challengeId",
          "type": "uint256"
        },
        {
          "internalType": "uint256",
          "name": "score",
          "type": "uint256"
        }
      ],
      "name": "logChallengeAttempt",
      "outputs": [],
      "stateMutability": "nonpayable",
      "type": "function"
    },
    {
      "inputs": [],
      "name": "owner",
      "outputs": [
        {
          "internalType": "address",
          "name": "",
          "type": "address"
        }
      ],
      "stateMutability": "view",
      "type": "function"
    },
    {
      "inputs": [],
      "name": "renounceOwnership",
      "outputs": [],
      "stateMutability": "nonpayable",
      "type": "function"
    },
    {
      "inputs": [
        {
          "internalType": "address",
          "name": "newOwner",
          "type": "address"
        }
      ],
      "name": "transferOwnership",
      "outputs": [],
      "stateMutability": "nonpayable",
      "type": "function"
    }
  ],
  "bytecode": "0x6080604052348015600e575f5ffd5b503380603357604051631e4fbdf760e01b81525f600482015260240160405180910390fd5b603a81603f565b50608e565b5f80546001600160a01b038381166001600160a01b0319831681178455604051919092169283917f8be0079c531659141344cd1fd0a4f28419497f9722a3daafe3b4186f6b6457e09190a35050565b6104fc8061009b5f395ff3fe608060405234801561000f575f5ffd5b5060043610610090575f3560e01c80638da5cb5b116100635780638da5cb5b1461013657806398a6243714610150578063d06509fd14610163578063d92ac83114610176578063f2fde38b14610189575f5ffd5b8063013713b314610094578063295ee40b146100d4578063715018a61461010a57806376c535ae14610114575b5f5ffd5b6100bf6100a236600461041e565b6001600160a01b03165f9081526002602052604090205460ff1690565b60405190151581526020015b60405180910390f35b6100fc6100e236600461041e565b6001600160a01b03165f9081526001602052604090205490565b6040519081526020016100cb565b61011261019c565b005b6100bf61012236600461041e565b60026020525f908152604090205460ff1681565b5f546040516001600160a01b0390911681526020016100cb565b61011261015e36600461041e565b6101af565b6100fc61017136600461041e565b610210565b61011261018436600461043e565b6102a3565b61011261019736600461041e565b610346565b6101a4610388565b6101ad5f6103b4565b565b5f6101b982610210565b9050604b811061020c576001600160a01b0382165f81815260026020526040808220805460ff19166001179055517f065471fbb465c70613420dfd6d8e1a07eb8a345cf81bc5fe88604403d6a0dcf99190a25b5050565b6001600160a01b0381165f9081526001602052604081205480820361023757505f92915050565b5f5f5b82811015610290576001600160a01b0385165f90815260016020526040902080548290811061026b5761026b61046e565b905f5260205f20906003020160010154826102869190610482565b915060010161023a565b5061029b82826104a7565b949350505050565b6102ab610388565b6001600160a01b0383165f8181526001602081815260408084208151606081018352888152808401888152428285019081528354808801855593885296859020915160039093029091019182555193810193909355925160029092019190915581518581529081018490527f68739a9b38a06ff91b17aaee0251ff2ebd6912e9999004318d9be6f1ed49b811910160405180910390a2505050565b61034e610388565b6001600160a01b03811661037c57604051631e4fbdf760e01b81525f60048201526024015b60405180910390fd5b610385816103b4565b50565b5f546001600160a01b031633146101ad5760405163118cdaa760e01b8152336004820152602401610373565b5f80546001600160a01b038381166001600160a01b0319831681178455604051919092169283917f8be0079c531659141344cd1fd0a4f28419497f9722a3daafe3b4186f6b6457e09190a35050565b80356001600160a01b0381168114610419575f5ffd5b919050565b5f6020828403121561042e575f5ffd5b61043782610403565b9392505050565b5f5f5f60608486031215610450575f5ffd5b61045984610403565b95602085013595506040909401359392505050565b634e487b7160e01b5f52603260045260245ffd5b808201808211156104a157634e487b7160e01b5f52601160045260245ffd5b92915050565b5f826104c157634e487b7160e01b5f52601260045260245ffd5b50049056fea26469706673582212200f6ba9dc8effdb827f940c576f3b093db65144aff60545eade17bed1b1d1cb7164736f6c634300081c0033",
  "linkReferences": {},
  "deployedLinkReferences": {}
}